{
  "_format": "hh-sol-artifact-1",
  "contractName": "JukeBox",
  "sourceName": "contracts/jukeBoxContract.sol",
  "abi": [
    {
      "inputs": [],
      "stateMutability": "nonpayable",
      "type": "constructor"
    },
    {
      "anonymous": false,
      "inputs": [
        {
          "indexed": true,
          "internalType": "address",
          "name": "from",
          "type": "address"
        },
        {
          "indexed": false,
          "internalType": "string",
          "name": "songLink",
          "type": "string"
        },
        {
          "indexed": false,
          "internalType": "uint256",
          "name": "timestamp",
          "type": "uint256"
        },
        {
          "indexed": false,
          "internalType": "string",
          "name": "songTitle",
          "type": "string"
        },
        {
          "indexed": false,
          "internalType": "string",
          "name": "artistName",
          "type": "string"
        }
      ],
      "name": "NewSong",
      "type": "event"
    },
    {
      "inputs": [],
      "name": "getJukeBoxData",
      "outputs": [
        {
          "components": [
            {
              "internalType": "address",
              "name": "jukeboxPlayer",
              "type": "address"
            },
            {
              "internalType": "string",
              "name": "songLink",
              "type": "string"
            },
            {
              "internalType": "uint256",
              "name": "timestamp",
              "type": "uint256"
            },
            {
              "internalType": "string",
              "name": "songTitle",
              "type": "string"
            },
            {
              "internalType": "string",
              "name": "artistName",
              "type": "string"
            }
          ],
          "internalType": "struct JukeBox.SpotifySong[]",
          "name": "",
          "type": "tuple[]"
        }
      ],
      "stateMutability": "view",
      "type": "function"
    },
    {
      "inputs": [
        {
          "internalType": "string",
          "name": "songLink",
          "type": "string"
        },
        {
          "internalType": "string",
          "name": "songTitle",
          "type": "string"
        },
        {
          "internalType": "string",
          "name": "artistName",
          "type": "string"
        }
      ],
      "name": "jukeBoxPlay",
      "outputs": [],
      "stateMutability": "nonpayable",
      "type": "function"
    }
  ],
  "bytecode": "0x60806040523480156200001157600080fd5b506200005d6040518060400160405280601981526020017f4a756b65426f7820436f6e7472616374204465706c6f796564000000000000008152506200006360201b620004941760201c565b620001f7565b62000103816040516024016200007a919062000170565b6040516020818303038152906040527f41304fac000000000000000000000000000000000000000000000000000000007bffffffffffffffffffffffffffffffffffffffffffffffffffffffff19166020820180517bffffffffffffffffffffffffffffffffffffffffffffffffffffffff83818316178352505050506200010660201b60201c565b50565b60008151905060006a636f6e736f6c652e6c6f679050602083016000808483855afa5050505050565b60006200013c8262000194565b6200014881856200019f565b93506200015a818560208601620001b0565b6200016581620001e6565b840191505092915050565b600060208201905081810360008301526200018c81846200012f565b905092915050565b600081519050919050565b600082825260208201905092915050565b60005b83811015620001d0578082015181840152602081019050620001b3565b83811115620001e0576000848401525b50505050565b6000601f19601f8301169050919050565b610c5f80620002076000396000f3fe608060405234801561001057600080fd5b50600436106100365760003560e01c8063842aff801461003b578063cff6bd6214610059575b600080fd5b610043610075565b604051610050919061094f565b60405180910390f35b610073600480360381019061006e91906106fd565b6102ea565b005b60606000805480602002602001604051908101604052809291908181526020016000905b828210156102e157838290600052602060002090600502016040518060a00160405290816000820160009054906101000a900473ffffffffffffffffffffffffffffffffffffffff1673ffffffffffffffffffffffffffffffffffffffff1673ffffffffffffffffffffffffffffffffffffffff16815260200160018201805461012290610b57565b80601f016020809104026020016040519081016040528092919081815260200182805461014e90610b57565b801561019b5780601f106101705761010080835404028352916020019161019b565b820191906000526020600020905b81548152906001019060200180831161017e57829003601f168201915b50505050508152602001600282015481526020016003820180546101be90610b57565b80601f01602080910402602001604051908101604052809291908181526020018280546101ea90610b57565b80156102375780601f1061020c57610100808354040283529160200191610237565b820191906000526020600020905b81548152906001019060200180831161021a57829003601f168201915b5050505050815260200160048201805461025090610b57565b80601f016020809104026020016040519081016040528092919081815260200182805461027c90610b57565b80156102c95780601f1061029e576101008083540402835291602001916102c9565b820191906000526020600020905b8154815290600101906020018083116102ac57829003601f168201915b50505050508152505081526020019060010190610099565b50505050905090565b6103296040518060400160405280601f81526020017f5375626d6974746564206120546f6b656e2c20736f6e67204c6f6164696e67008152503361052d565b60006040518060a001604052803373ffffffffffffffffffffffffffffffffffffffff16815260200185815260200142815260200184815260200183815250908060018154018082558091505060019003906000526020600020906005020160009091909190915060008201518160000160006101000a81548173ffffffffffffffffffffffffffffffffffffffff021916908373ffffffffffffffffffffffffffffffffffffffff16021790555060208201518160010190805190602001906103f49291906105f2565b5060408201518160020155606082015181600301908051906020019061041b9291906105f2565b5060808201518160040190805190602001906104389291906105f2565b5050503373ffffffffffffffffffffffffffffffffffffffff167f5b10e2100381b96037391f4950b8856c25ec5133dc144490ebc10447ba6ae1848442858560405161048794939291906109c3565b60405180910390a2505050565b61052a816040516024016104a89190610971565b6040516020818303038152906040527f41304fac000000000000000000000000000000000000000000000000000000007bffffffffffffffffffffffffffffffffffffffffffffffffffffffff19166020820180517bffffffffffffffffffffffffffffffffffffffffffffffffffffffff83818316178352505050506105c9565b50565b6105c58282604051602401610543929190610993565b6040516020818303038152906040527f319af333000000000000000000000000000000000000000000000000000000007bffffffffffffffffffffffffffffffffffffffffffffffffffffffff19166020820180517bffffffffffffffffffffffffffffffffffffffffffffffffffffffff83818316178352505050506105c9565b5050565b60008151905060006a636f6e736f6c652e6c6f679050602083016000808483855afa5050505050565b8280546105fe90610b57565b90600052602060002090601f0160209004810192826106205760008555610667565b82601f1061063957805160ff1916838001178555610667565b82800160010185558215610667579182015b8281111561066657825182559160200191906001019061064b565b5b5090506106749190610678565b5090565b5b80821115610691576000816000905550600101610679565b5090565b60006106a86106a384610a42565b610a1d565b9050828152602081018484840111156106c057600080fd5b6106cb848285610b15565b509392505050565b600082601f8301126106e457600080fd5b81356106f4848260208601610695565b91505092915050565b60008060006060848603121561071257600080fd5b600084013567ffffffffffffffff81111561072c57600080fd5b610738868287016106d3565b935050602084013567ffffffffffffffff81111561075557600080fd5b610761868287016106d3565b925050604084013567ffffffffffffffff81111561077e57600080fd5b61078a868287016106d3565b9150509250925092565b60006107a083836108ad565b905092915050565b6107b181610ad9565b82525050565b6107c081610ad9565b82525050565b60006107d182610a83565b6107db8185610aa6565b9350836020820285016107ed85610a73565b8060005b85811015610829578484038952815161080a8582610794565b945061081583610a99565b925060208a019950506001810190506107f1565b50829750879550505050505092915050565b600061084682610a8e565b6108508185610ab7565b9350610860818560208601610b24565b61086981610c18565b840191505092915050565b600061087f82610a8e565b6108898185610ac8565b9350610899818560208601610b24565b6108a281610c18565b840191505092915050565b600060a0830160008301516108c560008601826107a8565b50602083015184820360208601526108dd828261083b565b91505060408301516108f26040860182610931565b506060830151848203606086015261090a828261083b565b91505060808301518482036080860152610924828261083b565b9150508091505092915050565b61093a81610b0b565b82525050565b61094981610b0b565b82525050565b6000602082019050818103600083015261096981846107c6565b905092915050565b6000602082019050818103600083015261098b8184610874565b905092915050565b600060408201905081810360008301526109ad8185610874565b90506109bc60208301846107b7565b9392505050565b600060808201905081810360008301526109dd8187610874565b90506109ec6020830186610940565b81810360408301526109fe8185610874565b90508181036060830152610a128184610874565b905095945050505050565b6000610a27610a38565b9050610a338282610b89565b919050565b6000604051905090565b600067ffffffffffffffff821115610a5d57610a5c610be9565b5b610a6682610c18565b9050602081019050919050565b6000819050602082019050919050565b600081519050919050565b600081519050919050565b6000602082019050919050565b600082825260208201905092915050565b600082825260208201905092915050565b600082825260208201905092915050565b6000610ae482610aeb565b9050919050565b600073ffffffffffffffffffffffffffffffffffffffff82169050919050565b6000819050919050565b82818337600083830152505050565b60005b83811015610b42578082015181840152602081019050610b27565b83811115610b51576000848401525b50505050565b60006002820490506001821680610b6f57607f821691505b60208210811415610b8357610b82610bba565b5b50919050565b610b9282610c18565b810181811067ffffffffffffffff82111715610bb157610bb0610be9565b5b80604052505050565b7f4e487b7100000000000000000000000000000000000000000000000000000000600052602260045260246000fd5b7f4e487b7100000000000000000000000000000000000000000000000000000000600052604160045260246000fd5b6000601f19601f830116905091905056fea2646970667358221220f596e3eb4834164f716b093ac9f3554078f084ae69096d5af192a617a696fa7864736f6c63430008040033",
  "linkReferences": {},
  "deployedLinkReferences": {}
}