{
  "_format": "hh-sol-artifact-1",
  "contractName": "JukeBox",
  "sourceName": "contracts/jukeBoxContract.sol",
  "abi": [
    {
      "inputs": [],
      "stateMutability": "nonpayable",
      "type": "constructor"
    },
    {
      "anonymous": false,
      "inputs": [
        {
          "indexed": true,
          "internalType": "address",
          "name": "from",
          "type": "address"
        },
        {
          "indexed": false,
          "internalType": "string",
          "name": "songLink",
          "type": "string"
        },
        {
          "indexed": false,
          "internalType": "uint256",
          "name": "timestamp",
          "type": "uint256"
        },
        {
          "indexed": false,
          "internalType": "string",
          "name": "songTitle",
          "type": "string"
        },
        {
          "indexed": false,
          "internalType": "string",
          "name": "artistName",
          "type": "string"
        },
        {
          "indexed": false,
          "internalType": "string",
          "name": "albumImage",
          "type": "string"
        }
      ],
      "name": "NewSong",
      "type": "event"
    },
    {
      "inputs": [],
      "name": "getJukeBoxData",
      "outputs": [
        {
          "components": [
            {
              "internalType": "address",
              "name": "jukeboxPlayer",
              "type": "address"
            },
            {
              "internalType": "string",
              "name": "songLink",
              "type": "string"
            },
            {
              "internalType": "uint256",
              "name": "timestamp",
              "type": "uint256"
            },
            {
              "internalType": "string",
              "name": "songTitle",
              "type": "string"
            },
            {
              "internalType": "string",
              "name": "artistName",
              "type": "string"
            },
            {
              "internalType": "string",
              "name": "albumImage",
              "type": "string"
            }
          ],
          "internalType": "struct JukeBox.SpotifySong[]",
          "name": "",
          "type": "tuple[]"
        }
      ],
      "stateMutability": "view",
      "type": "function"
    },
    {
      "inputs": [
        {
          "internalType": "string",
          "name": "songLink",
          "type": "string"
        },
        {
          "internalType": "string",
          "name": "songTitle",
          "type": "string"
        },
        {
          "internalType": "string",
          "name": "artistName",
          "type": "string"
        },
        {
          "internalType": "string",
          "name": "albumImage",
          "type": "string"
        }
      ],
      "name": "jukeBoxPlay",
      "outputs": [],
      "stateMutability": "nonpayable",
      "type": "function"
    }
  ],
  "bytecode": "0x60806040523480156200001157600080fd5b506200005d6040518060400160405280601981526020017f4a756b65426f7820436f6e7472616374204465706c6f796564000000000000008152506200006360201b6200054c1760201c565b620001f7565b62000103816040516024016200007a919062000170565b6040516020818303038152906040527f41304fac000000000000000000000000000000000000000000000000000000007bffffffffffffffffffffffffffffffffffffffffffffffffffffffff19166020820180517bffffffffffffffffffffffffffffffffffffffffffffffffffffffff83818316178352505050506200010660201b60201c565b50565b60008151905060006a636f6e736f6c652e6c6f679050602083016000808483855afa5050505050565b60006200013c8262000194565b6200014881856200019f565b93506200015a818560208601620001b0565b6200016581620001e6565b840191505092915050565b600060208201905081810360008301526200018c81846200012f565b905092915050565b600081519050919050565b600082825260208201905092915050565b60005b83811015620001d0578082015181840152602081019050620001b3565b83811115620001e0576000848401525b50505050565b6000601f19601f8301169050919050565b610d7280620002076000396000f3fe608060405234801561001057600080fd5b50600436106100365760003560e01c8063842aff801461003b578063fb9549f014610059575b600080fd5b610043610075565b6040516100509190610a4d565b60405180910390f35b610073600480360381019061006e91906107b5565b61037c565b005b60606000805480602002602001604051908101604052809291908181526020016000905b8282101561037357838290600052602060002090600602016040518060c00160405290816000820160009054906101000a900473ffffffffffffffffffffffffffffffffffffffff1673ffffffffffffffffffffffffffffffffffffffff1673ffffffffffffffffffffffffffffffffffffffff16815260200160018201805461012290610c6a565b80601f016020809104026020016040519081016040528092919081815260200182805461014e90610c6a565b801561019b5780601f106101705761010080835404028352916020019161019b565b820191906000526020600020905b81548152906001019060200180831161017e57829003601f168201915b50505050508152602001600282015481526020016003820180546101be90610c6a565b80601f01602080910402602001604051908101604052809291908181526020018280546101ea90610c6a565b80156102375780601f1061020c57610100808354040283529160200191610237565b820191906000526020600020905b81548152906001019060200180831161021a57829003601f168201915b5050505050815260200160048201805461025090610c6a565b80601f016020809104026020016040519081016040528092919081815260200182805461027c90610c6a565b80156102c95780601f1061029e576101008083540402835291602001916102c9565b820191906000526020600020905b8154815290600101906020018083116102ac57829003601f168201915b505050505081526020016005820180546102e290610c6a565b80601f016020809104026020016040519081016040528092919081815260200182805461030e90610c6a565b801561035b5780601f106103305761010080835404028352916020019161035b565b820191906000526020600020905b81548152906001019060200180831161033e57829003601f168201915b50505050508152505081526020019060010190610099565b50505050905090565b6103bb6040518060400160405280601f81526020017f5375626d6974746564206120546f6b656e2c20736f6e67204c6f6164696e6700815250336105e5565b60006040518060c001604052803373ffffffffffffffffffffffffffffffffffffffff16815260200186815260200142815260200185815260200184815260200183815250908060018154018082558091505060019003906000526020600020906006020160009091909190915060008201518160000160006101000a81548173ffffffffffffffffffffffffffffffffffffffff021916908373ffffffffffffffffffffffffffffffffffffffff160217905550602082015181600101908051906020019061048c9291906106aa565b506040820151816002015560608201518160030190805190602001906104b39291906106aa565b5060808201518160040190805190602001906104d09291906106aa565b5060a08201518160050190805190602001906104ed9291906106aa565b5050503373ffffffffffffffffffffffffffffffffffffffff167f55c31a6a157a7cbcce07c04ee908e906ae55a6986500038cf6aaa29e2dcf60ab854286868660405161053e959493929190610ac1565b60405180910390a250505050565b6105e2816040516024016105609190610a6f565b6040516020818303038152906040527f41304fac000000000000000000000000000000000000000000000000000000007bffffffffffffffffffffffffffffffffffffffffffffffffffffffff19166020820180517bffffffffffffffffffffffffffffffffffffffffffffffffffffffff8381831617835250505050610681565b50565b61067d82826040516024016105fb929190610a91565b6040516020818303038152906040527f319af333000000000000000000000000000000000000000000000000000000007bffffffffffffffffffffffffffffffffffffffffffffffffffffffff19166020820180517bffffffffffffffffffffffffffffffffffffffffffffffffffffffff8381831617835250505050610681565b5050565b60008151905060006a636f6e736f6c652e6c6f679050602083016000808483855afa5050505050565b8280546106b690610c6a565b90600052602060002090601f0160209004810192826106d8576000855561071f565b82601f106106f157805160ff191683800117855561071f565b8280016001018555821561071f579182015b8281111561071e578251825591602001919060010190610703565b5b50905061072c9190610730565b5090565b5b80821115610749576000816000905550600101610731565b5090565b600061076061075b84610b55565b610b30565b90508281526020810184848401111561077857600080fd5b610783848285610c28565b509392505050565b600082601f83011261079c57600080fd5b81356107ac84826020860161074d565b91505092915050565b600080600080608085870312156107cb57600080fd5b600085013567ffffffffffffffff8111156107e557600080fd5b6107f18782880161078b565b945050602085013567ffffffffffffffff81111561080e57600080fd5b61081a8782880161078b565b935050604085013567ffffffffffffffff81111561083757600080fd5b6108438782880161078b565b925050606085013567ffffffffffffffff81111561086057600080fd5b61086c8782880161078b565b91505092959194509250565b60006108848383610991565b905092915050565b61089581610bec565b82525050565b6108a481610bec565b82525050565b60006108b582610b96565b6108bf8185610bb9565b9350836020820285016108d185610b86565b8060005b8581101561090d57848403895281516108ee8582610878565b94506108f983610bac565b925060208a019950506001810190506108d5565b50829750879550505050505092915050565b600061092a82610ba1565b6109348185610bca565b9350610944818560208601610c37565b61094d81610d2b565b840191505092915050565b600061096382610ba1565b61096d8185610bdb565b935061097d818560208601610c37565b61098681610d2b565b840191505092915050565b600060c0830160008301516109a9600086018261088c565b50602083015184820360208601526109c1828261091f565b91505060408301516109d66040860182610a2f565b50606083015184820360608601526109ee828261091f565b91505060808301518482036080860152610a08828261091f565b91505060a083015184820360a0860152610a22828261091f565b9150508091505092915050565b610a3881610c1e565b82525050565b610a4781610c1e565b82525050565b60006020820190508181036000830152610a6781846108aa565b905092915050565b60006020820190508181036000830152610a898184610958565b905092915050565b60006040820190508181036000830152610aab8185610958565b9050610aba602083018461089b565b9392505050565b600060a0820190508181036000830152610adb8188610958565b9050610aea6020830187610a3e565b8181036040830152610afc8186610958565b90508181036060830152610b108185610958565b90508181036080830152610b248184610958565b90509695505050505050565b6000610b3a610b4b565b9050610b468282610c9c565b919050565b6000604051905090565b600067ffffffffffffffff821115610b7057610b6f610cfc565b5b610b7982610d2b565b9050602081019050919050565b6000819050602082019050919050565b600081519050919050565b600081519050919050565b6000602082019050919050565b600082825260208201905092915050565b600082825260208201905092915050565b600082825260208201905092915050565b6000610bf782610bfe565b9050919050565b600073ffffffffffffffffffffffffffffffffffffffff82169050919050565b6000819050919050565b82818337600083830152505050565b60005b83811015610c55578082015181840152602081019050610c3a565b83811115610c64576000848401525b50505050565b60006002820490506001821680610c8257607f821691505b60208210811415610c9657610c95610ccd565b5b50919050565b610ca582610d2b565b810181811067ffffffffffffffff82111715610cc457610cc3610cfc565b5b80604052505050565b7f4e487b7100000000000000000000000000000000000000000000000000000000600052602260045260246000fd5b7f4e487b7100000000000000000000000000000000000000000000000000000000600052604160045260246000fd5b6000601f19601f830116905091905056fea264697066735822122002356c19a9c9c18f39e811f0c4e1acddcfd97a59c9ef8082a1899e86afa059f664736f6c63430008040033",
  "linkReferences": {},
  "deployedLinkReferences": {}
}