{
  "_format": "hh-sol-artifact-1",
  "contractName": "JukeBox",
  "sourceName": "contracts/jukeBoxContract.sol",
  "abi": [
    {
      "inputs": [],
      "stateMutability": "nonpayable",
      "type": "constructor"
    },
    {
      "anonymous": false,
      "inputs": [
        {
          "indexed": true,
          "internalType": "address",
          "name": "from",
          "type": "address"
        },
        {
          "indexed": false,
          "internalType": "uint256",
          "name": "timestamp",
          "type": "uint256"
        },
        {
          "indexed": false,
          "internalType": "string",
          "name": "songLink",
          "type": "string"
        }
      ],
      "name": "NewSong",
      "type": "event"
    },
    {
      "inputs": [],
      "name": "getJukeBoxData",
      "outputs": [
        {
          "components": [
            {
              "internalType": "address",
              "name": "waver",
              "type": "address"
            },
            {
              "internalType": "string",
              "name": "songLink",
              "type": "string"
            },
            {
              "internalType": "uint256",
              "name": "timestamp",
              "type": "uint256"
            }
          ],
          "internalType": "struct JukeBox.Song[]",
          "name": "",
          "type": "tuple[]"
        }
      ],
      "stateMutability": "view",
      "type": "function"
    },
    {
      "inputs": [
        {
          "internalType": "string",
          "name": "_currentSongLink",
          "type": "string"
        }
      ],
      "name": "jukeBoxPlay",
      "outputs": [],
      "stateMutability": "nonpayable",
      "type": "function"
    }
  ],
  "bytecode": "0x608060405234801561001057600080fd5b506100596040518060400160405280601981526020017f4a756b65426f7820436f6e7472616374204465706c6f7965640000000000000081525061005e60201b6103241760201c565b6101e1565b6100fa81604051602401610072919061015f565b6040516020818303038152906040527f41304fac000000000000000000000000000000000000000000000000000000007bffffffffffffffffffffffffffffffffffffffffffffffffffffffff19166020820180517bffffffffffffffffffffffffffffffffffffffffffffffffffffffff83818316178352505050506100fd60201b60201c565b50565b60008151905060006a636f6e736f6c652e6c6f679050602083016000808483855afa5050505050565b600061013182610181565b61013b818561018c565b935061014b81856020860161019d565b610154816101d0565b840191505092915050565b600060208201905081810360008301526101798184610126565b905092915050565b600081519050919050565b600082825260208201905092915050565b60005b838110156101bb5780820151818401526020810190506101a0565b838111156101ca576000848401525b50505050565b6000601f19601f8301169050919050565b610a3b806101f06000396000f3fe608060405234801561001057600080fd5b50600436106100365760003560e01c8063842aff801461003b5780639ecad9f314610059575b600080fd5b610043610075565b6040516100509190610755565b60405180910390f35b610073600480360381019061006e919061058d565b6101c6565b005b60606000805480602002602001604051908101604052809291908181526020016000905b828210156101bd57838290600052602060002090600302016040518060600160405290816000820160009054906101000a900473ffffffffffffffffffffffffffffffffffffffff1673ffffffffffffffffffffffffffffffffffffffff1673ffffffffffffffffffffffffffffffffffffffff16815260200160018201805461012290610933565b80601f016020809104026020016040519081016040528092919081815260200182805461014e90610933565b801561019b5780601f106101705761010080835404028352916020019161019b565b820191906000526020600020905b81548152906001019060200180831161017e57829003601f168201915b5050505050815260200160028201548152505081526020019060010190610099565b50505050905090565b6102056040518060400160405280601f81526020017f5375626d6974746564206120546f6b656e2c20736f6e67204c6f6164696e6700815250336103bd565b600060405180606001604052803373ffffffffffffffffffffffffffffffffffffffff16815260200183815260200142815250908060018154018082558091505060019003906000526020600020906003020160009091909190915060008201518160000160006101000a81548173ffffffffffffffffffffffffffffffffffffffff021916908373ffffffffffffffffffffffffffffffffffffffff16021790555060208201518160010190805190602001906102c4929190610482565b506040820151816002015550503373ffffffffffffffffffffffffffffffffffffffff167f2e96c1f7928a9072fdae4127a395c0b9269f4a7dce78ac1d1ee0c22036af97d942836040516103199291906107c9565b60405180910390a250565b6103ba816040516024016103389190610777565b6040516020818303038152906040527f41304fac000000000000000000000000000000000000000000000000000000007bffffffffffffffffffffffffffffffffffffffffffffffffffffffff19166020820180517bffffffffffffffffffffffffffffffffffffffffffffffffffffffff8381831617835250505050610459565b50565b61045582826040516024016103d3929190610799565b6040516020818303038152906040527f319af333000000000000000000000000000000000000000000000000000000007bffffffffffffffffffffffffffffffffffffffffffffffffffffffff19166020820180517bffffffffffffffffffffffffffffffffffffffffffffffffffffffff8381831617835250505050610459565b5050565b60008151905060006a636f6e736f6c652e6c6f679050602083016000808483855afa5050505050565b82805461048e90610933565b90600052602060002090601f0160209004810192826104b057600085556104f7565b82601f106104c957805160ff19168380011785556104f7565b828001600101855582156104f7579182015b828111156104f65782518255916020019190600101906104db565b5b5090506105049190610508565b5090565b5b80821115610521576000816000905550600101610509565b5090565b60006105386105338461081e565b6107f9565b90508281526020810184848401111561055057600080fd5b61055b8482856108f1565b509392505050565b600082601f83011261057457600080fd5b8135610584848260208601610525565b91505092915050565b60006020828403121561059f57600080fd5b600082013567ffffffffffffffff8111156105b957600080fd5b6105c584828501610563565b91505092915050565b60006105da83836106e7565b905092915050565b6105eb816108b5565b82525050565b6105fa816108b5565b82525050565b600061060b8261085f565b6106158185610882565b9350836020820285016106278561084f565b8060005b85811015610663578484038952815161064485826105ce565b945061064f83610875565b925060208a0199505060018101905061062b565b50829750879550505050505092915050565b60006106808261086a565b61068a8185610893565b935061069a818560208601610900565b6106a3816109f4565b840191505092915050565b60006106b98261086a565b6106c381856108a4565b93506106d3818560208601610900565b6106dc816109f4565b840191505092915050565b60006060830160008301516106ff60008601826105e2565b50602083015184820360208601526107178282610675565b915050604083015161072c6040860182610737565b508091505092915050565b610740816108e7565b82525050565b61074f816108e7565b82525050565b6000602082019050818103600083015261076f8184610600565b905092915050565b6000602082019050818103600083015261079181846106ae565b905092915050565b600060408201905081810360008301526107b381856106ae565b90506107c260208301846105f1565b9392505050565b60006040820190506107de6000830185610746565b81810360208301526107f081846106ae565b90509392505050565b6000610803610814565b905061080f8282610965565b919050565b6000604051905090565b600067ffffffffffffffff821115610839576108386109c5565b5b610842826109f4565b9050602081019050919050565b6000819050602082019050919050565b600081519050919050565b600081519050919050565b6000602082019050919050565b600082825260208201905092915050565b600082825260208201905092915050565b600082825260208201905092915050565b60006108c0826108c7565b9050919050565b600073ffffffffffffffffffffffffffffffffffffffff82169050919050565b6000819050919050565b82818337600083830152505050565b60005b8381101561091e578082015181840152602081019050610903565b8381111561092d576000848401525b50505050565b6000600282049050600182168061094b57607f821691505b6020821081141561095f5761095e610996565b5b50919050565b61096e826109f4565b810181811067ffffffffffffffff8211171561098d5761098c6109c5565b5b80604052505050565b7f4e487b7100000000000000000000000000000000000000000000000000000000600052602260045260246000fd5b7f4e487b7100000000000000000000000000000000000000000000000000000000600052604160045260246000fd5b6000601f19601f830116905091905056fea2646970667358221220ea3c19f1b6a69529c644f035ee722669b00f873fc93d469f14cc3d984c3e632064736f6c63430008040033",
  "linkReferences": {},
  "deployedLinkReferences": {}
}